{"abi":[{"type":"constructor","inputs":[{"name":"_monthlyFee","type":"uint256","internalType":"uint256"}],"stateMutability":"nonpayable"},{"type":"function","name":"BILLING_PERIOD","inputs":[],"outputs":[{"name":"","type":"uint64","internalType":"uint64"}],"stateMutability":"view"},{"type":"function","name":"addTrack","inputs":[{"name":"title","type":"string","internalType":"string"},{"name":"artist","type":"string","internalType":"string"},{"name":"album","type":"string","internalType":"string"},{"name":"genre","type":"string","internalType":"string"},{"name":"royaltyWallet","type":"address","internalType":"address payable"},{"name":"releaseDate","type":"uint256","internalType":"uint256"}],"outputs":[{"name":"trackId","type":"uint256","internalType":"uint256"}],"stateMutability":"nonpayable"},{"type":"function","name":"currentPeriod","inputs":[],"outputs":[{"name":"","type":"uint64","internalType":"uint64"}],"stateMutability":"view"},{"type":"function","name":"epochStart","inputs":[],"outputs":[{"name":"","type":"uint64","internalType":"uint64"}],"stateMutability":"view"},{"type":"function","name":"getTrack","inputs":[{"name":"trackId","type":"uint256","internalType":"uint256"}],"outputs":[{"name":"","type":"tuple","internalType":"struct Strictly.Track","components":[{"name":"title","type":"string","internalType":"string"},{"name":"artist","type":"string","internalType":"string"},{"name":"album","type":"string","internalType":"string"},{"name":"genre","type":"string","internalType":"string"},{"name":"royaltyWallet","type":"address","internalType":"address payable"},{"name":"releaseDate","type":"uint256","internalType":"uint256"},{"name":"uploader","type":"address","internalType":"address"},{"name":"exists","type":"bool","internalType":"bool"}]}],"stateMutability":"view"},{"type":"function","name":"hasActiveSubscription","inputs":[{"name":"listener","type":"address","internalType":"address"}],"outputs":[{"name":"","type":"bool","internalType":"bool"}],"stateMutability":"view"},{"type":"function","name":"hasPaidForPeriod","inputs":[{"name":"","type":"address","internalType":"address"},{"name":"","type":"uint64","internalType":"uint64"}],"outputs":[{"name":"","type":"bool","internalType":"bool"}],"stateMutability":"view"},{"type":"function","name":"monthlyFee","inputs":[],"outputs":[{"name":"","type":"uint256","internalType":"uint256"}],"stateMutability":"view"},{"type":"function","name":"owner","inputs":[],"outputs":[{"name":"","type":"address","internalType":"address"}],"stateMutability":"view"},{"type":"function","name":"paused","inputs":[],"outputs":[{"name":"","type":"bool","internalType":"bool"}],"stateMutability":"view"},{"type":"function","name":"periodBounds","inputs":[{"name":"period","type":"uint64","internalType":"uint64"}],"outputs":[{"name":"start","type":"uint64","internalType":"uint64"},{"name":"end","type":"uint64","internalType":"uint64"}],"stateMutability":"view"},{"type":"function","name":"periodPayment","inputs":[{"name":"","type":"address","internalType":"address"},{"name":"","type":"uint64","internalType":"uint64"}],"outputs":[{"name":"","type":"uint256","internalType":"uint256"}],"stateMutability":"view"},{"type":"function","name":"periodSettled","inputs":[{"name":"","type":"address","internalType":"address"},{"name":"","type":"uint64","internalType":"uint64"}],"outputs":[{"name":"","type":"bool","internalType":"bool"}],"stateMutability":"view"},{"type":"function","name":"playTrack","inputs":[{"name":"trackId","type":"uint256","internalType":"uint256"}],"outputs":[],"stateMutability":"nonpayable"},{"type":"function","name":"playedTrackIdsByPeriod","inputs":[{"name":"listener","type":"address","internalType":"address"},{"name":"period","type":"uint64","internalType":"uint64"}],"outputs":[{"name":"","type":"uint256[]","internalType":"uint256[]"}],"stateMutability":"view"},{"type":"function","name":"playsForTrack","inputs":[{"name":"listener","type":"address","internalType":"address"},{"name":"period","type":"uint64","internalType":"uint64"},{"name":"trackId","type":"uint256","internalType":"uint256"}],"outputs":[{"name":"","type":"uint256","internalType":"uint256"}],"stateMutability":"view"},{"type":"function","name":"renounceOwnership","inputs":[],"outputs":[],"stateMutability":"nonpayable"},{"type":"function","name":"settleListenerPeriod","inputs":[{"name":"listener","type":"address","internalType":"address"},{"name":"period","type":"uint64","internalType":"uint64"}],"outputs":[],"stateMutability":"nonpayable"},{"type":"function","name":"subscribe","inputs":[],"outputs":[],"stateMutability":"payable"},{"type":"function","name":"totalTrackPlays","inputs":[{"name":"","type":"address","internalType":"address"},{"name":"","type":"uint64","internalType":"uint64"}],"outputs":[{"name":"","type":"uint256","internalType":"uint256"}],"stateMutability":"view"},{"type":"function","name":"trackCount","inputs":[],"outputs":[{"name":"","type":"uint256","internalType":"uint256"}],"stateMutability":"view"},{"type":"function","name":"transferOwnership","inputs":[{"name":"newOwner","type":"address","internalType":"address"}],"outputs":[],"stateMutability":"nonpayable"},{"type":"event","name":"ListenerPeriodSettled","inputs":[{"name":"listener","type":"address","indexed":true,"internalType":"address"},{"name":"period","type":"uint64","indexed":true,"internalType":"uint64"},{"name":"totalDistributed","type":"uint256","indexed":false,"internalType":"uint256"},{"name":"refundedToListener","type":"uint256","indexed":false,"internalType":"uint256"}],"anonymous":false},{"type":"event","name":"OwnershipTransferred","inputs":[{"name":"previousOwner","type":"address","indexed":true,"internalType":"address"},{"name":"newOwner","type":"address","indexed":true,"internalType":"address"}],"anonymous":false},{"type":"event","name":"Paused","inputs":[{"name":"account","type":"address","indexed":false,"internalType":"address"}],"anonymous":false},{"type":"event","name":"SubscriptionPaid","inputs":[{"name":"listener","type":"address","indexed":true,"internalType":"address"},{"name":"period","type":"uint64","indexed":true,"internalType":"uint64"},{"name":"amount","type":"uint256","indexed":false,"internalType":"uint256"}],"anonymous":false},{"type":"event","name":"TrackAdded","inputs":[{"name":"trackId","type":"uint256","indexed":true,"internalType":"uint256"},{"name":"title","type":"string","indexed":false,"internalType":"string"},{"name":"artist","type":"string","indexed":false,"internalType":"string"},{"name":"royaltyWallet","type":"address","indexed":true,"internalType":"address"},{"name":"uploader","type":"address","indexed":true,"internalType":"address"},{"name":"releaseDate","type":"uint256","indexed":false,"internalType":"uint256"}],"anonymous":false},{"type":"event","name":"TrackPlayed","inputs":[{"name":"trackId","type":"uint256","indexed":true,"internalType":"uint256"},{"name":"listener","type":"address","indexed":true,"internalType":"address"},{"name":"period","type":"uint64","indexed":true,"internalType":"uint64"},{"name":"timestamp","type":"uint256","indexed":false,"internalType":"uint256"}],"anonymous":false},{"type":"event","name":"Unpaused","inputs":[{"name":"account","type":"address","indexed":false,"internalType":"address"}],"anonymous":false},{"type":"error","name":"EnforcedPause","inputs":[]},{"type":"error","name":"ExpectedPause","inputs":[]},{"type":"error","name":"OwnableInvalidOwner","inputs":[{"name":"owner","type":"address","internalType":"address"}]},{"type":"error","name":"OwnableUnauthorizedAccount","inputs":[{"name":"account","type":"address","internalType":"address"}]},{"type":"error","name":"ReentrancyGuardReentrantCall","inputs":[]}],"bytecode":{"object":"0x60a060405234801561000f575f5ffd5b506040516136da3803806136da8339818101604052810190610031919061021c565b335f73ffffffffffffffffffffffffffffffffffffffff168173ffffffffffffffffffffffffffffffffffffffff16036100a2575f6040517f1e4fbdf70000000000000000000000000000000000000000000000000000000081526004016100999190610286565b60405180910390fd5b6100b18161012460201b60201c565b50600180819055505f81116100fb576040517f08c379a00000000000000000000000000000000000000000000000000000000081526004016100f2906102f9565b60405180910390fd5b806003819055504267ffffffffffffffff1660808167ffffffffffffffff168152505050610317565b5f5f5f9054906101000a900473ffffffffffffffffffffffffffffffffffffffff169050815f5f6101000a81548173ffffffffffffffffffffffffffffffffffffffff021916908373ffffffffffffffffffffffffffffffffffffffff1602179055508173ffffffffffffffffffffffffffffffffffffffff168173ffffffffffffffffffffffffffffffffffffffff167f8be0079c531659141344cd1fd0a4f28419497f9722a3daafe3b4186f6b6457e060405160405180910390a35050565b5f5ffd5b5f819050919050565b6101fb816101e9565b8114610205575f5ffd5b50565b5f81519050610216816101f2565b92915050565b5f60208284031215610231576102306101e5565b5b5f61023e84828501610208565b91505092915050565b5f73ffffffffffffffffffffffffffffffffffffffff82169050919050565b5f61027082610247565b9050919050565b61028081610266565b82525050565b5f6020820190506102995f830184610277565b92915050565b5f82825260208201905092915050565b7f5374726963746c793a206d6f6e74686c792066656520726571756972656400005f82015250565b5f6102e3601e8361029f565b91506102ee826102af565b602082019050919050565b5f6020820190508181035f830152610310816102d7565b9050919050565b60805161339d61033d5f395f8181610560015281816105cf0152611ceb015261339d5ff3fe608060405260043610610134575f3560e01c80638f449a05116100aa578063c8265b5a1161006e578063c8265b5a1461040c578063c988920314610448578063d0e57a6414610484578063dc96f345146104c0578063f2fde38b146104fd578063f79ffb6f1461052557610134565b80638f449a051461032457806390d338951461032e5780639bae36541461036a578063ab35678c146103a6578063bebe4a57146103d057610134565b80635c975abb116100fc5780635c975abb1461022c578063629058ca14610256578063715018a61461029257806388f60ffe146102a85780638cfd3e40146102d05780638da5cb5b146102fa57610134565b80630604061814610138578063124e24621461016257806315e5a1e51461019e57806318f8e651146101c857806324da6cbb14610204575b5f5ffd5b348015610143575f5ffd5b5061014c61054f565b604051610159919061204d565b60405180910390f35b34801561016d575f5ffd5b50610188600480360381019061018391906120fb565b6105a3565b6040516101959190612153565b60405180910390f35b3480156101a9575f5ffd5b506101b26105cd565b6040516101bf919061204d565b60405180910390f35b3480156101d3575f5ffd5b506101ee60048036038101906101e991906120fb565b6105f1565b6040516101fb919061222c565b60405180910390f35b34801561020f575f5ffd5b5061022a600480360381019061022591906120fb565b61070c565b005b348015610237575f5ffd5b50610240610e38565b60405161024d9190612153565b60405180910390f35b348015610261575f5ffd5b5061027c60048036038101906102779190612276565b610e4d565b6040516102899190612411565b60405180910390f35b34801561029d575f5ffd5b506102a66111d0565b005b3480156102b3575f5ffd5b506102ce60048036038101906102c99190612276565b6111e3565b005b3480156102db575f5ffd5b506102e461162e565b6040516102f19190612440565b60405180910390f35b348015610305575f5ffd5b5061030e611634565b60405161031b9190612468565b60405180910390f35b61032c61165b565b005b348015610339575f5ffd5b50610354600480360381019061034f9190612481565b611890565b6040516103619190612440565b60405180910390f35b348015610375575f5ffd5b50610390600480360381019061038b91906120fb565b61190a565b60405161039d9190612153565b60405180910390f35b3480156103b1575f5ffd5b506103ba611934565b6040516103c79190612440565b60405180910390f35b3480156103db575f5ffd5b506103f660048036038101906103f191906124d1565b61193a565b6040516104039190612153565b60405180910390f35b348015610417575f5ffd5b50610432600480360381019061042d91906120fb565b6119b6565b60405161043f9190612440565b60405180910390f35b348015610453575f5ffd5b5061046e600480360381019061046991906120fb565b6119d6565b60405161047b9190612440565b60405180910390f35b34801561048f575f5ffd5b506104aa60048036038101906104a59190612652565b6119f6565b6040516104b79190612440565b60405180910390f35b3480156104cb575f5ffd5b506104e660048036038101906104e1919061274b565b611cd8565b6040516104f4929190612776565b60405180910390f35b348015610508575f5ffd5b50610523600480360381019061051e91906124d1565b611d2c565b005b348015610530575f5ffd5b50610539611db0565b604051610546919061204d565b60405180910390f35b5f62278d0067ffffffffffffffff167f000000000000000000000000000000000000000000000000000000000000000067ffffffffffffffff164261059491906127ca565b61059e919061282a565b905090565b6009602052815f5260405f20602052805f5260405f205f915091509054906101000a900460ff1681565b7f000000000000000000000000000000000000000000000000000000000000000081565b60605f600a5f8573ffffffffffffffffffffffffffffffffffffffff1673ffffffffffffffffffffffffffffffffffffffff1681526020019081526020015f205f8467ffffffffffffffff1667ffffffffffffffff1681526020019081526020015f2090505f818054905090505f8167ffffffffffffffff81111561067957610678612504565b5b6040519080825280602002602001820160405280156106a75781602001602082028036833780820191505090505b5090505f5f90505b828110156106ff578381815481106106ca576106c961285a565b5b905f5260205f2001548282815181106106e6576106e561285a565b5b60200260200101818152505080806001019150506106af565b5080935050505092915050565b5f73ffffffffffffffffffffffffffffffffffffffff168273ffffffffffffffffffffffffffffffffffffffff160361077a576040517f08c379a0000000000000000000000000000000000000000000000000000000008152600401610771906128e1565b60405180910390fd5b61078261054f565b67ffffffffffffffff168167ffffffffffffffff16106107d7576040517f08c379a00000000000000000000000000000000000000000000000000000000081526004016107ce90612949565b60405180910390fd5b60065f8373ffffffffffffffffffffffffffffffffffffffff1673ffffffffffffffffffffffffffffffffffffffff1681526020019081526020015f205f8267ffffffffffffffff1667ffffffffffffffff1681526020019081526020015f205f9054906101000a900460ff16610883576040517f08c379a000000000000000000000000000000000000000000000000000000000815260040161087a906129b1565b60405180910390fd5b60095f8373ffffffffffffffffffffffffffffffffffffffff1673ffffffffffffffffffffffffffffffffffffffff1681526020019081526020015f205f8267ffffffffffffffff1667ffffffffffffffff1681526020019081526020015f205f9054906101000a900460ff1615610930576040517f08c379a000000000000000000000000000000000000000000000000000000000815260040161092790612a19565b60405180910390fd5b8173ffffffffffffffffffffffffffffffffffffffff163373ffffffffffffffffffffffffffffffffffffffff16148061099c575061096d611634565b73ffffffffffffffffffffffffffffffffffffffff163373ffffffffffffffffffffffffffffffffffffffff16145b6109db576040517f08c379a00000000000000000000000000000000000000000000000000000000081526004016109d290612a81565b60405180910390fd5b600160095f8473ffffffffffffffffffffffffffffffffffffffff1673ffffffffffffffffffffffffffffffffffffffff1681526020019081526020015f205f8367ffffffffffffffff1667ffffffffffffffff1681526020019081526020015f205f6101000a81548160ff0219169083151502179055505f60075f8473ffffffffffffffffffffffffffffffffffffffff1673ffffffffffffffffffffffffffffffffffffffff1681526020019081526020015f205f8367ffffffffffffffff1667ffffffffffffffff1681526020019081526020015f205490505f60085f8573ffffffffffffffffffffffffffffffffffffffff1673ffffffffffffffffffffffffffffffffffffffff1681526020019081526020015f205f8467ffffffffffffffff1667ffffffffffffffff1681526020019081526020015f205490505f5f600a5f8773ffffffffffffffffffffffffffffffffffffffff1673ffffffffffffffffffffffffffffffffffffffff1681526020019081526020015f205f8667ffffffffffffffff1667ffffffffffffffff1681526020019081526020015f2090505f8303610bfd575f841115610b9957610b988685611db7565b5b8467ffffffffffffffff168673ffffffffffffffffffffffffffffffffffffffff167f4fcaa94ecbd241511823626b582a2ebc53cff92d44cb2aa77a47a2759ee09dde5f87604051610bec929190612ae1565b60405180910390a350505050610e34565b5f818054905090505f5f90505b81811015610daf575f838281548110610c2657610c2561285a565b5b905f5260205f20015490505f600b5f8b73ffffffffffffffffffffffffffffffffffffffff1673ffffffffffffffffffffffffffffffffffffffff1681526020019081526020015f205f8a67ffffffffffffffff1667ffffffffffffffff1681526020019081526020015f205f8381526020019081526020015f205490505f8103610cb2575050610da2565b5f60055f8481526020019081526020015f2090508060060160149054906101000a900460ff161580610d3257505f73ffffffffffffffffffffffffffffffffffffffff16816004015f9054906101000a900473ffffffffffffffffffffffffffffffffffffffff1673ffffffffffffffffffffffffffffffffffffffff16145b15610d3f57505050610da2565b5f88838b610d4d9190612b08565b610d57919061282a565b90505f811115610d9d578088610d6d9190612b49565b9750610d9c826004015f9054906101000a900473ffffffffffffffffffffffffffffffffffffffff1682611db7565b5b505050505b8080600101915050610c0a565b505f8386610dbd91906127ca565b90505f811115610dd257610dd18882611db7565b5b8667ffffffffffffffff168873ffffffffffffffffffffffffffffffffffffffff167f4fcaa94ecbd241511823626b582a2ebc53cff92d44cb2aa77a47a2759ee09dde8684604051610e25929190612b7c565b60405180910390a35050505050505b5050565b5f60025f9054906101000a900460ff16905090565b610e55611fbc565b5f60055f8481526020019081526020015f20604051806101000160405290815f82018054610e8290612bd0565b80601f0160208091040260200160405190810160405280929190818152602001828054610eae90612bd0565b8015610ef95780601f10610ed057610100808354040283529160200191610ef9565b820191905f5260205f20905b815481529060010190602001808311610edc57829003601f168201915b50505050508152602001600182018054610f1290612bd0565b80601f0160208091040260200160405190810160405280929190818152602001828054610f3e90612bd0565b8015610f895780601f10610f6057610100808354040283529160200191610f89565b820191905f5260205f20905b815481529060010190602001808311610f6c57829003601f168201915b50505050508152602001600282018054610fa290612bd0565b80601f0160208091040260200160405190810160405280929190818152602001828054610fce90612bd0565b80156110195780601f10610ff057610100808354040283529160200191611019565b820191905f5260205f20905b815481529060010190602001808311610ffc57829003601f168201915b5050505050815260200160038201805461103290612bd0565b80601f016020809104026020016040519081016040528092919081815260200182805461105e90612bd0565b80156110a95780601f10611080576101008083540402835291602001916110a9565b820191905f5260205f20905b81548152906001019060200180831161108c57829003601f168201915b50505050508152602001600482015f9054906101000a900473ffffffffffffffffffffffffffffffffffffffff1673ffffffffffffffffffffffffffffffffffffffff1673ffffffffffffffffffffffffffffffffffffffff16815260200160058201548152602001600682015f9054906101000a900473ffffffffffffffffffffffffffffffffffffffff1673ffffffffffffffffffffffffffffffffffffffff1673ffffffffffffffffffffffffffffffffffffffff1681526020016006820160149054906101000a900460ff16151515158152505090508060e001516111c7576040517f08c379a00000000000000000000000000000000000000000000000000000000081526004016111be90612c70565b60405180910390fd5b80915050919050565b6111d8611e6d565b6111e15f611ef4565b565b5f60055f8381526020019081526020015f2090508060060160149054906101000a900460ff16611248576040517f08c379a000000000000000000000000000000000000000000000000000000000815260040161123f90612cd8565b60405180910390fd5b428160050154111561128f576040517f08c379a000000000000000000000000000000000000000000000000000000000815260040161128690612d40565b60405180910390fd5b5f61129861054f565b905060065f3373ffffffffffffffffffffffffffffffffffffffff1673ffffffffffffffffffffffffffffffffffffffff1681526020019081526020015f205f8267ffffffffffffffff1667ffffffffffffffff1681526020019081526020015f205f9054906101000a900460ff16611346576040517f08c379a000000000000000000000000000000000000000000000000000000000815260040161133d90612da8565b60405180910390fd5b600160085f3373ffffffffffffffffffffffffffffffffffffffff1673ffffffffffffffffffffffffffffffffffffffff1681526020019081526020015f205f8367ffffffffffffffff1667ffffffffffffffff1681526020019081526020015f205f8282546113b69190612b49565b92505081905550600c5f3373ffffffffffffffffffffffffffffffffffffffff1673ffffffffffffffffffffffffffffffffffffffff1681526020019081526020015f205f8267ffffffffffffffff1667ffffffffffffffff1681526020019081526020015f205f8481526020019081526020015f205f9054906101000a900460ff1661154957600a5f3373ffffffffffffffffffffffffffffffffffffffff1673ffffffffffffffffffffffffffffffffffffffff1681526020019081526020015f205f8267ffffffffffffffff1667ffffffffffffffff1681526020019081526020015f2083908060018154018082558091505060019003905f5260205f20015f90919091909150556001600c5f3373ffffffffffffffffffffffffffffffffffffffff1673ffffffffffffffffffffffffffffffffffffffff1681526020019081526020015f205f8367ffffffffffffffff1667ffffffffffffffff1681526020019081526020015f205f8581526020019081526020015f205f6101000a81548160ff0219169083151502179055505b6001600b5f3373ffffffffffffffffffffffffffffffffffffffff1673ffffffffffffffffffffffffffffffffffffffff1681526020019081526020015f205f8367ffffffffffffffff1667ffffffffffffffff1681526020019081526020015f205f8581526020019081526020015f205f8282546115c89190612b49565b925050819055508067ffffffffffffffff163373ffffffffffffffffffffffffffffffffffffffff16847f2bb9e4ee6b38cbe9f4f150d1d53615d5442357a37f718121e1c823b7ee501c4b426040516116219190612440565b60405180910390a4505050565b60035481565b5f5f5f9054906101000a900473ffffffffffffffffffffffffffffffffffffffff16905090565b5f61166461054f565b905060065f3373ffffffffffffffffffffffffffffffffffffffff1673ffffffffffffffffffffffffffffffffffffffff1681526020019081526020015f205f8267ffffffffffffffff1667ffffffffffffffff1681526020019081526020015f205f9054906101000a900460ff1615611713576040517f08c379a000000000000000000000000000000000000000000000000000000000815260040161170a90612e10565b60405180910390fd5b6003543414611757576040517f08c379a000000000000000000000000000000000000000000000000000000000815260040161174e90612e78565b60405180910390fd5b600160065f3373ffffffffffffffffffffffffffffffffffffffff1673ffffffffffffffffffffffffffffffffffffffff1681526020019081526020015f205f8367ffffffffffffffff1667ffffffffffffffff1681526020019081526020015f205f6101000a81548160ff0219169083151502179055503460075f3373ffffffffffffffffffffffffffffffffffffffff1673ffffffffffffffffffffffffffffffffffffffff1681526020019081526020015f205f8367ffffffffffffffff1667ffffffffffffffff1681526020019081526020015f20819055508067ffffffffffffffff163373ffffffffffffffffffffffffffffffffffffffff167f437bb71331d07e8f6fd3e4d533ea6f61e34dd83afbf20a0761638df6142e2cc2346040516118859190612440565b60405180910390a350565b5f600b5f8573ffffffffffffffffffffffffffffffffffffffff1673ffffffffffffffffffffffffffffffffffffffff1681526020019081526020015f205f8467ffffffffffffffff1667ffffffffffffffff1681526020019081526020015f205f8381526020019081526020015f205490509392505050565b6006602052815f5260405f20602052805f5260405f205f915091509054906101000a900460ff1681565b60045481565b5f60065f8373ffffffffffffffffffffffffffffffffffffffff1673ffffffffffffffffffffffffffffffffffffffff1681526020019081526020015f205f61198161054f565b67ffffffffffffffff1667ffffffffffffffff1681526020019081526020015f205f9054906101000a900460ff169050919050565b6008602052815f5260405f20602052805f5260405f205f91509150505481565b6007602052815f5260405f20602052805f5260405f205f91509150505481565b5f5f875111611a3a576040517f08c379a0000000000000000000000000000000000000000000000000000000008152600401611a3190612ee0565b60405180910390fd5b5f73ffffffffffffffffffffffffffffffffffffffff168373ffffffffffffffffffffffffffffffffffffffff1603611aa8576040517f08c379a0000000000000000000000000000000000000000000000000000000008152600401611a9f90612f48565b60405180910390fd5b60045490506040518061010001604052808881526020018781526020018681526020018581526020018473ffffffffffffffffffffffffffffffffffffffff1681526020015f8414611afa5783611afc565b425b81526020013373ffffffffffffffffffffffffffffffffffffffff1681526020016001151581525060055f8381526020019081526020015f205f820151815f019081611b4891906130fd565b506020820151816001019081611b5e91906130fd565b506040820151816002019081611b7491906130fd565b506060820151816003019081611b8a91906130fd565b506080820151816004015f6101000a81548173ffffffffffffffffffffffffffffffffffffffff021916908373ffffffffffffffffffffffffffffffffffffffff16021790555060a0820151816005015560c0820151816006015f6101000a81548173ffffffffffffffffffffffffffffffffffffffff021916908373ffffffffffffffffffffffffffffffffffffffff16021790555060e08201518160060160146101000a81548160ff0219169083151502179055509050506001600454016004819055503373ffffffffffffffffffffffffffffffffffffffff168373ffffffffffffffffffffffffffffffffffffffff16827f8bccb75ce412a514e0ca37f296d04a35ca30b7200d10c68a2f6f853fad0e8fd28a8a60055f8881526020019081526020015f2060050154604051611cc693929190613204565b60405180910390a49695505050505050565b5f5f62278d0083611ce99190613247565b7f0000000000000000000000000000000000000000000000000000000000000000611d149190613283565b915062278d0082611d259190613283565b9050915091565b611d34611e6d565b5f73ffffffffffffffffffffffffffffffffffffffff168173ffffffffffffffffffffffffffffffffffffffff1603611da4575f6040517f1e4fbdf7000000000000000000000000000000000000000000000000000000008152600401611d9b9190612468565b60405180910390fd5b611dad81611ef4565b50565b62278d0081565b5f810315611e69575f8273ffffffffffffffffffffffffffffffffffffffff1682604051611de4906132eb565b5f6040518083038185875af1925050503d805f8114611e1e576040519150601f19603f3d011682016040523d82523d5f602084013e611e23565b606091505b5050905080611e67576040517f08c379a0000000000000000000000000000000000000000000000000000000008152600401611e5e90613349565b60405180910390fd5b505b5050565b611e75611fb5565b73ffffffffffffffffffffffffffffffffffffffff16611e93611634565b73ffffffffffffffffffffffffffffffffffffffff1614611ef257611eb6611fb5565b6040517f118cdaa7000000000000000000000000000000000000000000000000000000008152600401611ee99190612468565b60405180910390fd5b565b5f5f5f9054906101000a900473ffffffffffffffffffffffffffffffffffffffff169050815f5f6101000a81548173ffffffffffffffffffffffffffffffffffffffff021916908373ffffffffffffffffffffffffffffffffffffffff1602179055508173ffffffffffffffffffffffffffffffffffffffff168173ffffffffffffffffffffffffffffffffffffffff167f8be0079c531659141344cd1fd0a4f28419497f9722a3daafe3b4186f6b6457e060405160405180910390a35050565b5f33905090565b604051806101000160405280606081526020016060815260200160608152602001606081526020015f73ffffffffffffffffffffffffffffffffffffffff1681526020015f81526020015f73ffffffffffffffffffffffffffffffffffffffff1681526020015f151581525090565b5f67ffffffffffffffff82169050919050565b6120478161202b565b82525050565b5f6020820190506120605f83018461203e565b92915050565b5f604051905090565b5f5ffd5b5f5ffd5b5f73ffffffffffffffffffffffffffffffffffffffff82169050919050565b5f6120a082612077565b9050919050565b6120b081612096565b81146120ba575f5ffd5b50565b5f813590506120cb816120a7565b92915050565b6120da8161202b565b81146120e4575f5ffd5b50565b5f813590506120f5816120d1565b92915050565b5f5f604083850312156121115761211061206f565b5b5f61211e858286016120bd565b925050602061212f858286016120e7565b9150509250929050565b5f8115159050919050565b61214d81612139565b82525050565b5f6020820190506121665f830184612144565b92915050565b5f81519050919050565b5f82825260208201905092915050565b5f819050602082019050919050565b5f819050919050565b6121a781612195565b82525050565b5f6121b8838361219e565b60208301905092915050565b5f602082019050919050565b5f6121da8261216c565b6121e48185612176565b93506121ef83612186565b805f5b8381101561221f57815161220688826121ad565b9750612211836121c4565b9250506001810190506121f2565b5085935050505092915050565b5f6020820190508181035f83015261224481846121d0565b905092915050565b61225581612195565b811461225f575f5ffd5b50565b5f813590506122708161224c565b92915050565b5f6020828403121561228b5761228a61206f565b5b5f61229884828501612262565b91505092915050565b5f81519050919050565b5f82825260208201905092915050565b8281835e5f83830152505050565b5f601f19601f8301169050919050565b5f6122e3826122a1565b6122ed81856122ab565b93506122fd8185602086016122bb565b612306816122c9565b840191505092915050565b5f61231b82612077565b9050919050565b61232b81612311565b82525050565b61233a81612096565b82525050565b61234981612139565b82525050565b5f61010083015f8301518482035f86015261236a82826122d9565b9150506020830151848203602086015261238482826122d9565b9150506040830151848203604086015261239e82826122d9565b915050606083015184820360608601526123b882826122d9565b91505060808301516123cd6080860182612322565b5060a08301516123e060a086018261219e565b5060c08301516123f360c0860182612331565b5060e083015161240660e0860182612340565b508091505092915050565b5f6020820190508181035f830152612429818461234f565b905092915050565b61243a81612195565b82525050565b5f6020820190506124535f830184612431565b92915050565b61246281612096565b82525050565b5f60208201905061247b5f830184612459565b92915050565b5f5f5f606084860312156124985761249761206f565b5b5f6124a5868287016120bd565b93505060206124b6868287016120e7565b92505060406124c786828701612262565b9150509250925092565b5f602082840312156124e6576124e561206f565b5b5f6124f3848285016120bd565b91505092915050565b5f5ffd5b5f5ffd5b7f4e487b71000000000000000000000000000000000000000000000000000000005f52604160045260245ffd5b61253a826122c9565b810181811067ffffffffffffffff8211171561255957612558612504565b5b80604052505050565b5f61256b612066565b90506125778282612531565b919050565b5f67ffffffffffffffff82111561259657612595612504565b5b61259f826122c9565b9050602081019050919050565b828183375f83830152505050565b5f6125cc6125c78461257c565b612562565b9050828152602081018484840111156125e8576125e7612500565b5b6125f38482856125ac565b509392505050565b5f82601f83011261260f5761260e6124fc565b5b813561261f8482602086016125ba565b91505092915050565b61263181612311565b811461263b575f5ffd5b50565b5f8135905061264c81612628565b92915050565b5f5f5f5f5f5f60c0878903121561266c5761266b61206f565b5b5f87013567ffffffffffffffff81111561268957612688612073565b5b61269589828a016125fb565b965050602087013567ffffffffffffffff8111156126b6576126b5612073565b5b6126c289828a016125fb565b955050604087013567ffffffffffffffff8111156126e3576126e2612073565b5b6126ef89828a016125fb565b945050606087013567ffffffffffffffff8111156127105761270f612073565b5b61271c89828a016125fb565b935050608061272d89828a0161263e565b92505060a061273e89828a01612262565b9150509295509295509295565b5f602082840312156127605761275f61206f565b5b5f61276d848285016120e7565b91505092915050565b5f6040820190506127895f83018561203e565b612796602083018461203e565b9392505050565b7f4e487b71000000000000000000000000000000000000000000000000000000005f52601160045260245ffd5b5f6127d482612195565b91506127df83612195565b92508282039050818111156127f7576127f661279d565b5b92915050565b7f4e487b71000000000000000000000000000000000000000000000000000000005f52601260045260245ffd5b5f61283482612195565b915061283f83612195565b92508261284f5761284e6127fd565b5b828204905092915050565b7f4e487b71000000000000000000000000000000000000000000000000000000005f52603260045260245ffd5b5f82825260208201905092915050565b7f5374726963746c793a206c697374656e657220726571756972656400000000005f82015250565b5f6128cb601b83612887565b91506128d682612897565b602082019050919050565b5f6020820190508181035f8301526128f8816128bf565b9050919050565b7f5374726963746c793a20706572696f64207374696c6c206163746976650000005f82015250565b5f612933601d83612887565b915061293e826128ff565b602082019050919050565b5f6020820190508181035f83015261296081612927565b9050919050565b7f5374726963746c793a20706572696f6420756e706169640000000000000000005f82015250565b5f61299b601783612887565b91506129a682612967565b602082019050919050565b5f6020820190508181035f8301526129c88161298f565b9050919050565b7f5374726963746c793a20616c726561647920736574746c6564000000000000005f82015250565b5f612a03601983612887565b9150612a0e826129cf565b602082019050919050565b5f6020820190508181035f830152612a30816129f7565b9050919050565b7f5374726963746c793a206e6f7420617574686f726973656400000000000000005f82015250565b5f612a6b601883612887565b9150612a7682612a37565b602082019050919050565b5f6020820190508181035f830152612a9881612a5f565b9050919050565b5f819050919050565b5f819050919050565b5f612acb612ac6612ac184612a9f565b612aa8565b612195565b9050919050565b612adb81612ab1565b82525050565b5f604082019050612af45f830185612ad2565b612b016020830184612431565b9392505050565b5f612b1282612195565b9150612b1d83612195565b9250828202612b2b81612195565b91508282048414831517612b4257612b4161279d565b5b5092915050565b5f612b5382612195565b9150612b5e83612195565b9250828201905080821115612b7657612b7561279d565b5b92915050565b5f604082019050612b8f5f830185612431565b612b9c6020830184612431565b9392505050565b7f4e487b71000000000000000000000000000000000000000000000000000000005f52602260045260245ffd5b5f6002820490506001821680612be757607f821691505b602082108103612bfa57612bf9612ba3565b5b50919050565b7f49276d20736f7272792c2074686520747261636b20796f75277265206c6f6f6b5f8201527f696e6720666f7220646f65736e27742065786973740000000000000000000000602082015250565b5f612c5a603583612887565b9150612c6582612c00565b604082019050919050565b5f6020820190508181035f830152612c8781612c4e565b9050919050565b7f5374726963746c793a20747261636b206d697373696e670000000000000000005f82015250565b5f612cc2601783612887565b9150612ccd82612c8e565b602082019050919050565b5f6020820190508181035f830152612cef81612cb6565b9050919050565b7f5374726963746c793a20747261636b206e6f742072656c6561736564000000005f82015250565b5f612d2a601c83612887565b9150612d3582612cf6565b602082019050919050565b5f6020820190508181035f830152612d5781612d1e565b9050919050565b7f5374726963746c793a20737562736372697074696f6e20696e616374697665005f82015250565b5f612d92601f83612887565b9150612d9d82612d5e565b602082019050919050565b5f6020820190508181035f830152612dbf81612d86565b9050919050565b7f5374726963746c793a20616c72656164792070616964000000000000000000005f82015250565b5f612dfa601683612887565b9150612e0582612dc6565b602082019050919050565b5f6020820190508181035f830152612e2781612dee565b9050919050565b7f5374726963746c793a20696e636f7272656374206665650000000000000000005f82015250565b5f612e62601783612887565b9150612e6d82612e2e565b602082019050919050565b5f6020820190508181035f830152612e8f81612e56565b9050919050565b7f5374726963746c793a207469746c6520726571756972656400000000000000005f82015250565b5f612eca601883612887565b9150612ed582612e96565b602082019050919050565b5f6020820190508181035f830152612ef781612ebe565b9050919050565b7f5374726963746c793a2077616c6c6574207265717569726564000000000000005f82015250565b5f612f32601983612887565b9150612f3d82612efe565b602082019050919050565b5f6020820190508181035f830152612f5f81612f26565b9050919050565b5f819050815f5260205f209050919050565b5f6020601f8301049050919050565b5f82821b905092915050565b5f60088302612fc27fffffffffffffffffffffffffffffffffffffffffffffffffffffffffffffffff82612f87565b612fcc8683612f87565b95508019841693508086168417925050509392505050565b5f612ffe612ff9612ff484612195565b612aa8565b612195565b9050919050565b5f819050919050565b61301783612fe4565b61302b61302382613005565b848454612f93565b825550505050565b5f5f905090565b613042613033565b61304d81848461300e565b505050565b5b81811015613070576130655f8261303a565b600181019050613053565b5050565b601f8211156130b55761308681612f66565b61308f84612f78565b8101602085101561309e578190505b6130b26130aa85612f78565b830182613052565b50505b505050565b5f82821c905092915050565b5f6130d55f19846008026130ba565b1980831691505092915050565b5f6130ed83836130c6565b9150826002028217905092915050565b613106826122a1565b67ffffffffffffffff81111561311f5761311e612504565b5b6131298254612bd0565b613134828285613074565b5f60209050601f831160018114613165575f8415613153578287015190505b61315d85826130e2565b8655506131c4565b601f19841661317386612f66565b5f5b8281101561319a57848901518255600182019150602085019450602081019050613175565b868310156131b757848901516131b3601f8916826130c6565b8355505b6001600288020188555050505b505050505050565b5f6131d6826122a1565b6131e08185612887565b93506131f08185602086016122bb565b6131f9816122c9565b840191505092915050565b5f6060820190508181035f83015261321c81866131cc565b9050818103602083015261323081856131cc565b905061323f6040830184612431565b949350505050565b5f6132518261202b565b915061325c8361202b565b925082820261326a8161202b565b915080821461327c5761327b61279d565b5b5092915050565b5f61328d8261202b565b91506132988361202b565b9250828201905067ffffffffffffffff8111156132b8576132b761279d565b5b92915050565b5f81905092915050565b50565b5f6132d65f836132be565b91506132e1826132c8565b5f82019050919050565b5f6132f5826132cb565b9150819050919050565b7f5374726963746c793a207472616e73666572206661696c6564000000000000005f82015250565b5f613333601983612887565b915061333e826132ff565b602082019050919050565b5f6020820190508181035f83015261336081613327565b905091905056fea26469706673582212206c48da950a569900d0a8ec3f93f90ac6ee13157e8164bea8c22990c1dd0fc31564736f6c634300081e0033","linkReferences":{}},"methodIdentifiers":{"BILLING_PERIOD()":"f79ffb6f","addTrack(string,string,string,string,address,uint256)":"d0e57a64","currentPeriod()":"06040618","epochStart()":"15e5a1e5","getTrack(uint256)":"629058ca","hasActiveSubscription(address)":"bebe4a57","hasPaidForPeriod(address,uint64)":"9bae3654","monthlyFee()":"8cfd3e40","owner()":"8da5cb5b","paused()":"5c975abb","periodBounds(uint64)":"dc96f345","periodPayment(address,uint64)":"c9889203","periodSettled(address,uint64)":"124e2462","playTrack(uint256)":"88f60ffe","playedTrackIdsByPeriod(address,uint64)":"18f8e651","playsForTrack(address,uint64,uint256)":"90d33895","renounceOwnership()":"715018a6","settleListenerPeriod(address,uint64)":"24da6cbb","subscribe()":"8f449a05","totalTrackPlays(address,uint64)":"c8265b5a","trackCount()":"ab35678c","transferOwnership(address)":"f2fde38b"},"id":0}